:020000040000FA
:0400000020000428B0
:0800080020008C018C01210095
:100010008C0121006B3099002100980123008C0194
:10002000200037308C000430422020008C01043046
:100030004220FF302000B200FF30B30032086520BC
:100040002000330865207820043042202000B201CF
:10005000B301320865202000330865207820043081
:10006000422011282000A0004A202000A003031DE8
:10007000342808002000A10053202000A103031D04
:100080003C2808002000A2005C202000A203031DE1
:100090004428080020001730A300A303031D4D28A7
:1000A0000000000008002000F830A400A403031D95
:1000B0005628000000000800FA302000A500532058
:1000C0002000A503031D5F2808002000B1000830B0
:1000D000B0000310B10D031C71280C168C168C1285
:1000E000752820000C128C168C12B00B69280800A1
:0800F00020008C168C120800A0
:020000040001F9
:02000E00E439D3
:02001000FF1ED1
:00000001FF
